:100000000C94F9010C942A020C942A020C942A02F2
:100010000C942A020C942A020C942A020C942A02B0
:100020000C942A020C942A020C942A020C942A02A0
:100030000C942A020C942A020C942A020C942A0290
:100040000C942A020C942A020C942A020C942A0280
:100050000C942A020C942A020C942A020C94651027
:100060000C942A020C94D9100C94AF100C942A0210
:100070000C942A020C942A020C942A020C942A0250
:100080000C942A020C942A020C942A020C942A0240
:100090000C942A020C942A020C942A020C940F113C
:1000A0000C942A020C942A020C942A020C942A0220
:1000B0000C942A020C942A020C942A020C942A0210
:1000C0000C942A020C942A020C942A020C942A0200
:1000D0000C942A020C942A020C942A020C942A02F0
:1000E0000C942A020C94850F0C9466060C94D91A71
:1000F0000C948F0C0C947C020C94B10C0C94800228
:100100000C94B80C0C94881A0C94280D0C9484024E
:100110000C94B7060C945F050C94FE050C947802C1
:100120000C9443160C94B3020C949E0C0C94C605CC
:100130000C94A7180C94CF160C9449160C94AE0886
:100140000C9431160C9415030C94B2020C942C02EE
:100150000C9458090C94F0170C944F160C949F02B1
:100160000C94A4050C94DC190C94E61A0C948D02E2
:100170000C948E0C0C94E50C0C9455030C949A1969
:100180000C9495050C944B180C940C170C94DA14E1
:100190000C94B7020C949B020C942D020C949218B0
:1001A0000C9446160C94AD020C94A5020C94B51256
:1001B0000C9497020C9416190C94290D0C94B80504
:1001C0000C943A160C9491020C94C3190C94A90245
:1001D0000C94E4020C9448120C94E6140C944C1603
:1001E0000C9472020C9487025741524E494E473A82
:1001F00020436F6D6D756E69636174696F6E206603
:1002000061696C7572652C20697320746865204D76
:100210004652433532322070726F7065726C7920AD
:10022000636F6E6E65637465643F00203D202875C2
:100230006E6B6E6F776E2900203D20636F756E7454
:10024000657266656974206368697000203D207678
:10025000322E3000203D2076312E3000203D207699
:10026000302E3000203D2028636C6F6E65290046DB
:1002700069726D776172652056657273696F6E3A47
:10028000203078005363616E205049434320746FDF
:1002900020736565205549442C2053414B2C207414
:1002A0007970652C20616E64206461746120626CD9
:1002B0006F636B732E2E2E0032313A35333A31395B
:1002C0000053657020323720323032330000002175
:1002D00000240027002A002D003000330001010017
:1002E00000040107010A0100002200250028002B5C
:1002F000002E003100340002010000050108010B4E
:1003000001000020002300260029002C002F0032CD
:1003100000000100000301060109010505050507AC
:100320000508080808020202020A0A080804040470
:10033000040101010101010101030303030303039C
:1003400003040707070C0C0C0C0C0C0C0C0202022B
:100350000206060606060606060B0B0B0B0B0B0B1E
:100360000B010210202008081020401020408002BD
:1003700001020108040201010204081020408080EB
:10038000402010080402018004020180402010086F
:100390000402010804020101020408102040800147
:1003A0000204081020408000000A0B02090C0D0E08
:1003B0000807030401000000000000000000000026
:1003C000000000000000000000000000000000002D
:1003D00000000012111000000000000000000000EA
:1003E0000000000000000000000000000000B51246
:1003F000481211241FBECFEFD1E2DEBFCDBF00E017
:100400000CBF26E0A0E8B4E001C01D92AA3CB207F0
:10041000E1F714E0A0E0B2E0E6EFFAE300E00BBFA2
:1004200002C007900D92A038B107D9F711E0C8EFCC
:10043000D1E000E006C021970109802FFE010E9453
:10044000421BC73FD10780E00807A9F70E94AE13FF
:100450000C94691D0C9400000895089596E0899FFE
:10046000D0011124AC5FB94F90967C936E935F9747
:1004700091E091969C939197E0917106F0917206AC
:1004800090917006992339F0309751F0811108C08E
:10049000809120061994309719F05C968C91FACFD0
:1004A00008958CBD9DBD08958150823108F05AC0D9
:1004B000E82FF0E08827E05AFD4F8F4F0C94421B45
:1004C00080028402720278027C02B20287028D02EC
:1004D000910297029B029F02A502A902B202AD02FD
:1004E000B302B702809180008F77809380000895D7
:1004F000809180008F7DF9CF80918000877FF5CF3C
:1005000084B58F7784BD089584B58F7DFBCF8091AE
:10051000B0008F778093B00008958091B0008F7DF8
:10052000F9CF809190008F7780939000089580910B
:1005300090008F7DF9CF80919000877FF5CF8091DB
:10054000A0008F778093A00008958091A0008F7DF8
:10055000F9CF8091A000877FF5CF809120018F7720
:10056000809320010895809120018F7DF9CF8091A3
:100570002001877FF5CFCF93DF93282F30E0F9015B
:10058000E955FC4F8491F901EF59FC4FD491F901E1
:10059000E55EFC4FC491CC23A1F081110E9454026E
:1005A000EC2FF0E0EE0FFF1FEF5FFC4FA591B49131
:1005B000EC91ED2381E090E009F480E0DF91CF91B0
:1005C000089580E090E0FACF862F0C94BB021F9331
:1005D000CF93DF93282F30E0F901E955FC4F849148
:1005E000F901EF59FC4FD491F901E55EFC4FC4913C
:1005F000CC23A9F0162F81110E945402EC2FF0E0B9
:10060000EE0FFF1FE951FD4FA591B4918FB7F894FC
:10061000EC91111108C0D095DE23DC938FBFDF91E0
:10062000CF911F910895DE2BF8CF862F642F0C9465
:10063000E702CF93DF9390E0FC01EF59FC4F249148
:10064000855E9C4FFC0184918823C9F090E0880F5F
:10065000991FFC01E353FD4FA591B491FC01E951B1
:10066000FD4FC591D49161110DC09FB7F8948C9145
:10067000209582238C938881282328839FBFDF9134
:10068000CF910895623051F49FB7F8943C91822F36
:10069000809583238C93E8812E2BEFCF8FB7F8942E
:1006A000EC912E2B2C938FBFEACF862F642F0C94C6
:1006B00019033FB7F8948091D6049091D704A09184
:1006C000D804B091D90426B5A89B05C02F3F19F0D6
:1006D0000196A11DB11D3FBFBA2FA92F982F8827C2
:1006E000BC01CD01620F711D811D911D42E0660F9D
:1006F000771F881F991F4A95D1F708958F929F926F
:10070000AF92BF92CF92DF92EF92FF924B015C01CA
:100710000E9459036B017C010E9459036C197D09E9
:100720008E099F09683E734081059105A8F321E079
:10073000821A9108A108B10888EEC80E83E0D81E7D
:10074000E11CF11C81149104A104B10429F7FF906C
:10075000EF90DF90CF90BF90AF909F908F900895D3
:100760002FB7F8946091D2047091D3048091D4048F
:100770009091D5042FBF08950F931F93CF93DF93CC
:10078000C82FD62F86E0C89FF0011124EC5FF94FE7
:1007900011A2878D90A181309105F1F058F082303F
:1007A0009105F1F1039709F440C0DF91CF911F91BA
:1007B0000F9108956623C9F361E070E08C2F0E94C9
:1007C0002E020E94B00360935C0670935D068093D6
:1007D0005E0690935F06E9CF0E94B00300915C062D
:1007E00010915D0620915E0630915F06AB01BC0161
:1007F000401B510B620B730B80916E0690916F063C
:10080000B0E0A0E084179507A607B70748F462E0B8
:1008100070E08C2FDF91CF911F910F910C942E02DD
:1008200063E070E0D111C1CFF4CF70E060E0F1CFB0
:100830006F927F928F929F92AF92BF92CF92DF92F0
:10084000EF92FF920F931F93CF93DF9381E08093FA
:1008500070060E94B003009160061091610620911D
:10086000620630916306AB01BC01401B510B620B69
:10087000730B80916C0690916D06B0E0A0E0841738
:100880009507A607B70708F014C1C0E080916A0673
:10089000C81760F4E0916606F0916706EC0FF11D51
:1008A00062E080810E941903CF5FF0CF712C812C10
:1008B000912C5401839480916B06781608F05FC0E8
:1008C000072D10E0E0916806F0916906E00FF11F36
:1008D00061E080810E941903E0916806F091690649
:1008E000E00FF11F60E080810E94E702D501C401A2
:1008F000072C04C0880F991FAA1FBB1F0A94D2F7A8
:100900006C017C01E094F094612C80916A06681679
:10091000F8F4C62DD0E0E0916606F0916706EC0F82
:10092000FD1F80810E94BB022496CC0FDD1FCC5F8F
:10093000D94F892B41F4888199818C299D299983EC
:1009400088836394E2CF888199818E219F21F7CF9C
:10095000E0916806F0916906E00FF11F61E0808187
:100960000E94E7028091680690916906080F191F9E
:1009700060E0F80180810E94190373949CCFC4E069
:10098000D6E0FE018FEF9FEF278D30A1232B21F4BE
:10099000148E968F858F11A2369626E0E034F207EA
:1009A00099F7F12C96E0D92E80916A06F81608F096
:1009B00050C0E12C0F2D10E0000F111F045F194FE4
:1009C00020916B06E21608F042C0F8016081718147
:1009D0000E2C02C0769567950A94E2F7F29E90017C
:1009E00011242E0D311DE4E0F6E080E0458D568D9A
:1009F0002417350709F461C08F5F36968A30B1F746
:100A000060FF23C0E4E0F6E090E080E0448D411117
:100A100017C0E0916406F0916506E20FF31F408174
:100A2000D89EF001D99EF00D1124EC5FF94F448F50
:100A3000368F258F10A2178E61E00E94BC0305C07F
:100A4000019636968A30910509F7E394B9CFF3946D
:100A5000ABCF10E089A18111182F2696F6E0C034A3
:100A6000DF07C1F70E94B0036093600670936106D0
:100A700080936206909363061123D9F08091250636
:100A80008823B9F08091230690912406019789F478
:100A900080912006DF91CF911F910F91FF90EF90F1
:100AA000DF90CF90BF90AF909F908F907F906F908E
:100AB00008951092700680E0EDCF6170BECFAF92C6
:100AC000BF92CF92DF92EF92FF920F931F93CF933B
:100AD000DF936C017B018B01040F151FEB015E019D
:100AE000AE18BF08C017D10759F06991D601ED9132
:100AF000FC910190F081E02DC6011995892B79F7C1
:100B0000C501DF91CF911F910F91FF90EF90DF9082
:100B1000CF90BF90AF900895FC01448155816081D2
:100B2000718189EB96E00C945F05FC01538D448D37
:100B3000252F30E0842F90E0821B930B541710F088
:100B4000CF96089501970895FC01918D828D981795
:100B500061F0A28DAE0FBF2FB11D5D968C91928D6D
:100B60009F5F9F73928F90E008958FEF9FEF08959E
:100B7000FC01918D828D981731F0828DE80FF11D67
:100B8000858D90E008958FEF9FEF0895FC01918D82
:100B9000228D892F90E0805C9F4F821B91098F737B
:100BA000992708958BE595E00E94C60521E0892BE1
:100BB00009F420E0822F0895FC01A48DA80FB92F1D
:100BC000B11DA35ABF4F2C91848D90E001968F7375
:100BD0009927848FA689B7892C93A089B1898C9194
:100BE000837080648C93938D848D981306C00288E3
:100BF000F389E02D80818F7D80830895EF92FF92AD
:100C00000F931F93CF93DF93EC0181E0888F9B8D2F
:100C10008C8D98131AC0E889F989808185FF15C0E9
:100C20009FB7F894EE89FF896083E889F98980810C
:100C30008370806480839FBF81E090E0DF91CF91DB
:100C40001F910F91FF90EF900895F62E0B8D10E0FD
:100C50000F5F1F4F0F731127E02E8C8D8E110CC06C
:100C60000FB607FCFACFE889F989808185FFF5CFB7
:100C7000CE010E94DC05F1CFEB8DEC0FFD2FF11DB5
:100C8000E35AFF4FF0829FB7F8940B8FEA89FB89F4
:100C900080818062CFCF0F931F93CF93DF938C011E
:100CA000D0E0C0E0F801EC0FFD1F6491662341F035
:100CB0008BE595E00E94FE05892B11F02196F2CF7D
:100CC000CE01DF91CF911F910F910895CF93DF93C4
:100CD000EC01888D8823B9F0AA89BB89E889F98954
:100CE0008C9185FD03C0808186FD0DC00FB607FC89
:100CF000F7CF8C9185FFF2CF808185FFEDCFCE01BC
:100D00000E94DC05E9CFDF91CF91089580E090E06B
:100D1000892B29F00E94D20581110E94000080E0F9
:100D200090E0892B49F080E090E0892B29F00E9427
:100D3000000081110E94000080E090E0892B49F0C2
:100D400080E090E0892B29F00E94000081110E9430
:100D5000000080E090E0892B49F080E090E0892B52
:100D600029F00E94000081110C9400000895BC013C
:100D70006E5F7F4FDC01ED91FC910190F081E02DE1
:100D800040E0199591E0811190E0892F0895089530
:100D90008EBD00000DB407FEFDCF8EB50895DF9225
:100DA000EF92FF920F931F93CF93DF937C01062F57
:100DB000D42E152F80E590E00E94510260E0F701EB
:100DC00086850E94E70282E10E94C806CD2DD12FC0
:100DD0000C0F1D2F111DC017D10721F089910E9402
:100DE000C806F9CF61E0F7018685DF91CF911F91A9
:100DF0000F91FF90EF90DF900C94E7021F93CF9339
:100E0000DF93EC01162F80E590E00E94510260E034
:100E10008E850E94E702812F80680E94C80680E0CC
:100E20000E94C806182F61E08E850E94E702812F7C
:100E3000DF91CF911F9108950F931F93CF93DF936D
:100E4000EC01062F142F80E590E00E94510260E033
:100E50008E850E94E702802F0E94C806812F0E9483
:100E6000C80661E08E85DF91CF911F910F910C94A0
:100E7000E702CF92DF92EF92FF920F931F93CF93EF
:100E8000DF93EC016B01F42E890140E062E00E94E7
:100E90001C0744E06AE0CE010E941C0740E864E1C0
:100EA000CE010E941C07A6016F2DCE010E94CF0625
:100EB00043E062E0CE010E941C070E94B0036B0178
:100EC0007C0129E5C20ED11CE11CF11C6AE0CE01B7
:100ED0000E94FE0682FF1BC040E062E0CE010E943D
:100EE0001C0764E4CE010E94FE06F801808362E4E0
:100EF000CE010E94FE06F801818380E0DF91CF9150
:100F00001F910F91FF90EF90DF90CF9008950E9476
:100F1000B0036C157D058E059F05C0F283E0EECF12
:100F20002F923F924F925F926F927F928F929F92F9
:100F3000AF92CF92DF92EF92FF920F931F93CF93D6
:100F4000DF931F921F92CDB7DEB74C012B01D42E39
:100F5000390180E0E114F10411F0F70180813C2CAB
:100F6000329490EF3922380E40E062E0C4010E94D2
:100F70001C074FE768E0C4010E941C0740E864E1D9
:100F8000C4010E941C07A2016D2DC4010E94CF065E
:100F9000432D6AE1C4010E941C074CE062E0C401D9
:100FA0000E941C076AE1C4010E94FE06482F4068A7
:100FB0006AE1C4010E941C070E94B0031B012C01BE
:100FC000F4E22F0E311C411C511C68E0C4010E9448
:100FD000FE06982F907309F0B7C080FF15C083E01C
:100FE0000F900F90DF91CF911F910F91FF90EF9095
:100FF000DF90CF90AF909F908F907F906F905F9099
:101000004F903F902F9008950E94B0036215730592
:1010100084059505D0F2E3CF6114710409F469C029
:101020000115110509F465C064E1C4010E94FE06C2
:10103000382EF8018081831508F480C03082332077
:10104000E1F180E590E00E94510260E0F4018685C4
:101050000E94E7023A9482E90E94C806CC20B1F0CF
:101060008FEF90E09C0102C0220F331FCA94E2F779
:10107000690182E90E94C8069C2D9095F3012081A8
:1010800092238C21982B9083CC24C39423014C0C65
:10109000511CC31440F482E90E94C806F2018193F6
:1010A0002F01C394F6CF80E00E94C806F20180832E
:1010B00061E0F40186850E94E70268E1C4010E94B4
:1010C000FE068770E114F10411F0F701808323FC20
:1010D00037C061147104B1F10115110599F1AA200D
:1010E00089F1F8014081413031F4843029F58FEFE6
:1010F00077CF80E0ECCF4230F8F081111DC0425034
:101100009E012F5F3F4FB301C4010E943907811137
:1011100067CFF8019081690E711CF301329720812D
:101120009981291309C0F1E06F1A7108F301208138
:101130009A81291709F454CF87E052CF84E050CF29
:1011400082E04ECF80E04CCF6CE0C4010E94FE06EE
:10115000282E837109F460CF81E042CF8F929F9255
:10116000AF92CF92EF92FF920F931F93CF93DF93A3
:1011700000D01F921F92CDB7DEB74C0182E08D8365
:1011800040E064E2C4010E941C0740E066E2C40142
:101190000E941C0746E268E4C4010E941C0786E224
:1011A0008B838D818230D8F16CE1C4010E94FE06F0
:1011B000482F4F776CE1C4010E941C0787E08C83A5
:1011C000A12CC12CCE0104967C018E010B5F1F4F18
:1011D0009E012F5F3F4F41E0BE016D5F7F4FC40115
:1011E0000E949007982F811117C08D818230B9F429
:1011F0008C81811114C081E00F900F900F900F909F
:101200000F90DF91CF911F910F91FF90EF90CF90B2
:10121000AF909F908F90089581E0923069F380E0C5
:10122000EBCF8F929F92AF92CF92DF92EF92FF928D
:101230000F931F93CF93DF9300D01F92CDB7DEB7EC
:101240004C0180E589831A829E012D5F3F4F42E069
:10125000BE016F5F7F4FC4010E943907D82E8111F4
:1012600016C0A12CC12CF12CE12C10E000E030E0E4
:1012700020E044E0BE016F5F7F4FC4010E949007F1
:10128000833029F0D82E811102C0DD24D3948D2D16
:101290000F900F900F900F90DF91CF911F910F91B2
:1012A000FF90EF90DF90CF90AF909F908F90089538
:1012B0002F923F924F925F926F927F928F929F9266
:1012C000AF92BF92CF92DF92EF92FF920F931F9354
:1012D000CF93DF93CDB7DEB72D970FB6F894DEBF6F
:1012E0000FBECDBF16E0413508F04AC1342E3B0198
:1012F0004C016CE10E94FE06482F4F776CE1C4015F
:101300000E941C0783E98983332029F081E0F301DF
:101310009081953008F480E022242394B12C9B2DF9
:10132000990F990F990FD32CD91AD7FCD12C32E0F1
:10133000882319F098E89B8333E021E09D2D977076
:1013400009F420E09D2D959595959595290FC9F067
:1013500094E0811193E0291708F4922FEB2DF0E02F
:101360003196E60DF71D232F4191A1E0B0E0AC0FBF
:10137000BD1FA20FB11D4C932F5F422F431B491776
:1013800098F3882311F0F8E0DF0E8FE18D150CF053
:1013900082C090E79A838B819C8189279D818927D0
:1013A0009E8189278F839E01285F3F4F47E0BE01C2
:1013B0006F5F7F4FC4010E943907182F8111E0C071
:1013C0001A86E3E0EB87DC86CE0107962C0199E0D4
:1013D0009D87CA844C2D4295407F4C0D6AE1C40123
:1013E0000E941C07A12CCE010A967C018E01055F8C
:1013F0001F4F92014D85BE016F5F7F4FC4010E9458
:101400009007182F823009F065C06CE1C4010E947A
:10141000FE0685FDB5C08F7109F480E2282F30E00B
:101420004D2DDD0C550B421753070CF09DC0D82EE7
:10143000E82FE595E595E595EF5F982F977081E0AA
:1014400009F480E0E80F81E090E08C0F9D1F8E0F83
:10145000911DFC01215031092770332781E090E074
:1014600002C0880F991F2A95E2F79C018081822B88
:1014700080838BCF85E98983332031F081E0F301CC
:101480009081983008F04BCF80E049CF87E989837D
:1014900026E0B22EF9CF9D2D97709A878D2D8595D8
:1014A000859585958E5F282F2295207F290F2A8389
:1014B00021E0911101C020E0280F2D87442443949E
:1014C000512C4C0E5D1E480E511CE9E0E81BEB87C9
:1014D000DC867FCF811154C080E2D82E9C8590326B
:1014E0000CF457CF8B81883809F040C083E093E03B
:1014F000EB2DF0E03196E60DF71D980FA1E0B0E07E
:10150000AC0FBD1FA80FB11D2C9121938F5F8913C4
:10151000F5CFBB84E3E0BE124DC08A8581114AC07D
:101520009E012D5F3F4F41E0B201C4010E94390787
:10153000182F811125C09B81F201818198133CC035
:101540009C818281981338C0808182FF12C02394CD
:10155000F2E02F1609F48ECF83E0281609F496CF17
:1015600091E0291609F4CECE15E00AC082E094E09D
:10157000BFCFF3018387822D880F820D8F5F808319
:10158000812F2D960FB6F894DEBF0FBECDBFDF9131
:10159000CF911F910F91FF90EF90DF90CF90BF9070
:1015A000AF909F908F907F906F905F904F903F9003
:1015B0002F90089511E0E4CF17E0E2CF2091A1042D
:1015C000260F3327331F21323105ECF420913105EA
:1015D000FC0190E080E0243069F082E00895A09161
:1015E000A1042191AC014F575B4FA40FB52FB11D42
:1015F0002C930196861798F38091A104680F60934D
:10160000A10480E0089581E008951092310581E001
:101610008093300510920B0561E084E10E94E7029F
:1016200061E085E10E94E702E9EBF0E080818E7FD6
:10163000808380818D7F808388E48093B80085E4F7
:101640008093BC00089510920A051092090510922B
:10165000380510925A050E94050B8CE292E0909397
:101660000805809307058DE292E09093060580932C
:1016700005050895CF93DF9391E09093800488232C
:10168000B9F0C091B800D091BA008091BC008A7BBB
:101690008093BC0060E084E10E94E70260E085E1A5
:1016A0000E94E7020E94050BD093BA00C093B800D5
:1016B000DF91CF9108958F929F92AF92BF92CF9278
:1016C000DF92EF92FF920F931F93CF93DF93D0910E
:1016D0005A05D13208F0D7C0182FC09159050E9481
:1016E00059036B017C018091310581116BC082E04F
:1016F00080933105109330058FEF80932F05109262
:101700002E05D0932D05A9E3B5E0EDE0F5E080E0EE
:10171000D81391C010920C0580910C05CC0FC82BEA
:10172000C0930C0580910B05813009F088C01092A0
:101730000B050E9459036B017C0180910C0580937D
:10174000BB008091330590913405A0913505B0918F
:101750003605892B8A2B8B2BA1F00E94590300910F
:1017600033051091340520913505309136056C19FB
:101770007D098E099F09061717072807390708F4FE
:1017800042C08091BC0083FDD8CF85EC8093BC0023
:101790000E9459036B017C0180913105823009F46C
:1017A00050C080912F058F3F09F46FC080912F05A5
:1017B000803209F46CC080912F05803309F469C030
:1017C00084E026C08091330590913405A0913505C1
:1017D000B0913605892B8A2B8B2B09F484CF0E947C
:1017E00059038090330590903405A0903505B09052
:1017F00036056C197D098E099F0986169706A8067D
:10180000B90608F070CF809132050E943A0B85E04E
:101810001092380510925A0510923705DF91CF913A
:101820001F910F91FF90EF90DF90CF90BF90AF90FE
:101830009F908F9008959D9191938F5F69CF85EED2
:10184000A5CF8091330590913405A0913505B091D5
:101850003605892B8A2B8B2B09F49ECF0E945903C6
:1018600000913305109134052091350530913605EE
:101870006C197D098E099F09061717072807390774
:1018800008F08ACFC0CF81E0C3CF80E0C1CF82E033
:10189000BFCF83E0BDCF1F93CF93DF93EA01122F19
:1018A000DC0111968D919C91DC01ED91FC910280FF
:1018B000F381E02D1995C817D90729F4812F0E94CB
:1018C0005B0B91E0811190E0892FDF91CF911F9107
:1018D0000895CF93DF93EC018B818823A1F0888159
:1018E00091E0909337058093590510923805109236
:1018F0005A0581E00E945B0B91E0811190E0892FF5
:10190000DF91CF9108950E94230B81E08B83CE015C
:101910000E94690C982F8111E2CFF1CF0895E091D8
:101920000A0580910905E81730F4F0E0E652FB4F14
:10193000808190E008958FEF9FEF089590910A05C0
:10194000809109052FEF3FEF981748F4E92FF0E059
:10195000E652FB4F208130E09F5F90930A05C9015A
:1019600008958091090590910A05891B990B0895A6
:10197000CF92DF92EF92FF920F931F93CF93DF935B
:101980007C01CB018A0120913705222389F0EB01EC
:101990006B01C40ED51ECC15DD0569F06991D70128
:1019A000ED91FC910190F081E02DC7011995F3CFE5
:1019B000642F0E94DE0AC801DF91CF911F910F9121
:1019C000FF90EF90DF90CF900895CF93DF931F9219
:1019D000CDB7DEB76983209137052223F9F0209136
:1019E0005A05203258F021E030E0FC013383228395
:1019F00090E080E00F90DF91CF91089580913805BD
:101A0000E82FF0E0E75CFA4F998190838F5F809335
:101A1000380580935A0581E090E0ECCF61E0CE017B
:101A200001960E94DE0AF7CFFC01248131E0309359
:101A30003705209359051092380510925A05848570
:101A4000682B88EF95E00E94E50C81E00C945B0B1D
:101A5000089590E080E008952F923F924F925F9218
:101A60006F927F928F929F92AF92BF92CF92DF92AE
:101A7000EF92FF920F931F93CF93DF935C011B01B3
:101A80006A01F12CE12CD50114968D919C9186016F
:101A90000E191F098017910708F48C01F501D081F8
:101AA0000E9459032B013C0180913105811172C0C4
:101AB000C02F013208F0C0E2F1E0F093310521E0DF
:101AC000C601801B910BE816F90608F420E020936C
:101AD00030058FEF80932F0510922E058C0F809389
:101AE0002D05A1E0A0930C0580910C05DD0FD82BEE
:101AF000D0930C0580910B05813009F090C01092B5
:101B00000B050E9459032B013C0180910C05809329
:101B1000BB008091330590913405A0913505B091BB
:101B20003605892B8A2B8B2BA1F00E94590320911B
:101B300033053091340540913505509136056419CF
:101B4000750986099709261737074807590708F4C2
:101B500042C08091BC0083FDD8CFB5ECB093BC00EF
:101B60000E9459032B013C0180913105813009F419
:101B70005AC080912E058C1710F4C0912E05ADE04F
:101B8000B5E0EAEDF4E080E08C1751F19D9191937E
:101B90008F5FFACF8091330590913405A091350580
:101BA000B0913605892B8A2B8B2B09F47DCF0E94AF
:101BB00059032091330530913405409135055091FA
:101BC00036056419750986099709261737074807E6
:101BD000590708F069CF809132050E943A0BC0E0A6
:101BE00010920A05C0930905C017110609F057C0E5
:101BF00041018E0C9F1CE401CE01881999098017C0
:101C0000910798F5D50111968D919C91DC01ED918C
:101C1000FC910284F385E02D19958993EDCFE5EED3
:101C2000E093BC009DCF8091330590913405A09145
:101C30003505B0913605892B8A2B8B2B09F494CF6F
:101C40000E945903209133053091340540913505A8
:101C500050913605641975098609970926173707C3
:101C60004807590708F080CFB6CFE00EF11EEC14FC
:101C7000FD0408F408CF81E0DF91CF911F910F910F
:101C8000FF90EF90DF90CF90BF90AF909F908F909C
:101C90007F906F905F904F903F902F90089580E0DD
:101CA000EBCF0F931F93CF938C01C62F0E94140D7F
:101CB0006C2F6460C8010E94140D6C2F6B7FC801EB
:101CC0000E94140D83EC90E00197F1F7CF911F91E2
:101CD0000F9108950F931F93CF93DF938C01D62F0D
:101CE000C42F607F642B0E94510E80E1D89FB00109
:101CF00011246C2BC801DF91CF911F910F910C948F
:101D0000510ECF93DF9300D000D01F921F92CDB71A
:101D1000DEB798E0E6E2F2E0DE01119601900D9266
:101D20009A95E1F79091C106961710F46FEF690F3D
:101D3000262F30E0220F331F41E050E04C0F5D1F93
:101D4000240F351FF9016081680F606840E089EB5E
:101D500096E028960FB6F894DEBF0FBECDBFDF9198
:101D6000CF910C946A0E40E061E089EB96E00E940E
:101D70006A0E8BE39FE10197F1F78091C2068823F9
:101D800021F060E080E00C94810E0895CF93DF9302
:101D900080910405882309F487C08091030581118F
:101DA00083C00E94230B1092BE068091C40682302D
:101DB00018F098E09093BE068093C10662E370E04D
:101DC00080E090E00E947E036091C50689EB96E07A
:101DD0000E94140D68EE73E080E090E00E947E03A4
:101DE00060E389EB96E00E94510ECBE4D6E4CE018D
:101DF0000197F1F760E389EB96E00E94510E21977D
:101E0000F1F760E389EB96E00E94510E83E592E0E2
:101E10000197F1F760E289EB96E00E94510E609124
:101E2000BE06606240E089EB96E00E946A0E84E0A4
:101E30008093BF0640E06CE089EB96E00E946A0E5A
:101E40000E94B30E82E08093C00640E066E089EB1A
:101E500096E00E946A0E40E062E089EB96E00E9404
:101E60006A0E8BE39FE10197F1F710920205109241
:101E7000010582E693E0809304056091BF06862FFA
:101E800084608093BF066C6040E089EB96E00E941E
:101E90006A0E88E08093C50660E089EB96E00E94B8
:101EA000140D81E0809303058091040581112AC0FF
:101EB0008091010590910205843F914018F1809135
:101EC00003058823F9F06091BF066B7F6093BF061E
:101ED000686040E089EB96E00E946A0E1092C506A9
:101EE00060E089EB96E00E94140D1092FE041092BF
:101EF000FD0481E08093FC0410920305109200051C
:101F00001092FF04DF91CF91089541E00E946A0E84
:101F100081E090E00895CF93DF938091FA0490914F
:101F2000FB04009711F00E94E61B86E090E00E94FF
:101F30004A1BEC0188E6888388EF95E09A838983C1
:101F40001B8280E290E09D838C83D093FB04C0933E
:101F5000FA040E94230B81E08B83CE01DF91CF91A5
:101F60000C94690CFB0101900020E9F73197AF0157
:101F7000461B570BDC01ED91FC910280F381E02DB3
:101F80001994CF93DF930E944B06EC0162E872E054
:101F90008BE595E00E94B20F8C0F9D1FDF91CF91D2
:101FA00008958F929F92AF92BF920F931F93CF93FA
:101FB000DF93CDB7DEB7A1970FB6F894DEBF0FBEA3
:101FC000CDBF19A2423008F44AE08E010F5D1F4FC9
:101FD000842E912CB12CA12CA50194010E94201BD0
:101FE000E62FB901CA01EA3004F5E05DD801EE93AD
:101FF0008D01232B242B252B79F790E080E010977F
:1020000029F0BD018BE595E00E94B20FA1960FB6B5
:10201000F894DEBF0FBECDBFDF91CF911F910F911E
:10202000BF90AF909F908F900895E95CDFCF0F93A2
:102030001F93CF93DF93EC010E94B20F8C0162E8F3
:1020400072E0CE010E94B20F800F911FDF91CF91FD
:102050001F910F9108950C94B20F85ED8093BC00F1
:102060008091330590913405A0913505B0913605E6
:102070000796A11DB11D23E0B695A7959795879565
:102080002A95D1F72091BC0024FD03C010923105A0
:102090000895409133055091340560913505709154
:1020A0003605452B462B472B69F30097A105B10553
:1020B00041F02AE22A95F1F700C00197A109B10980
:1020C000E1CF809132050C943A0B1F920F920FB61C
:1020D0000F9211242F933F938F939F93AF93BF93AE
:1020E0008091D2049091D304A091D404B091D504EE
:1020F0003091D10423E0230F2D3758F50196A11D0F
:10210000B11D2093D1048093D2049093D304A09363
:10211000D404B093D5048091D6049091D704A091B3
:10212000D804B091D9040196A11DB11D8093D604A5
:102130009093D704A093D804B093D904BF91AF91E2
:102140009F918F913F912F910F900FBE0F901F90F5
:10215000189526E8230F0296A11DB11DD2CF1F921C
:102160000F920FB60F9211240BB60F922F933F933D
:102170004F935F936F937F938F939F93AF93BF938F
:10218000EF93FF938BE595E00E94DC05FF91EF91C3
:10219000BF91AF919F918F917F916F915F914F917F
:1021A0003F912F910F900BBE0F900FBE0F901F907D
:1021B00018951F920F920FB60F9211240BB60F9223
:1021C0002F938F939F93EF93FF93E0916B05F09183
:1021D0006C058081E0917105F091720582FD1DC052
:1021E0009081809174058F5F8F73209175058217A0
:1021F00041F0E0917405F0E0E55AFA4F958F809335
:102200007405FF91EF919F918F912F910F900BBECD
:102210000F900FBE0F901F9018958081F2CF1F92E4
:102220000F920FB60F9211240BB60F922F933F937C
:102230004F935F936F937F938F939F93AF93BF93CE
:10224000EF93FF938091B900887F803609F44DC0E9
:1022500008F040C0883209F4A9C028F5803109F49B
:102260009DC0C8F4882309F4FBC0883009F496C0E7
:10227000FF91EF91BF91AF919F918F917F916F915E
:102280005F914F913F912F910F900BBE0F900FBE1A
:102290000F901F901895883109F488C0803241F75B
:1022A00080932F0514C0803409F49DC040F480331E
:1022B000B9F38833E9F680932F0585ECB0C08035FB
:1022C00009F485C0883509F496C0883489F60E94DF
:1022D0002D10CECF883909F48CC038F5883729F015
:1022E00050F4883611F0803719F683E08093310579
:1022F0001092C30457C0883809F47BC0803919F0A4
:10230000803809F0B5CF8091C304803208F071C0E5
:10231000E091C30481E08E0F8093C3048091BB00E1
:10232000F0E0ED55FB4F80833DC0803B39F0E0F499
:10233000803A09F479C0883A09F09ACF84E0809312
:1023400031051092A2041092A104E0910705F091CA
:10235000080519958091A10481110FC081E0809337
:10236000A1041092810409C0803C09F4A6CF883CE6
:1023700009F4A3CF883B09F07BCFE091A20481E070
:102380008E0F8093A204F0E0EF57FB4F8081809383
:10239000BB009091A2048091A10429C080910C05FA
:1023A0008093BB0085EC8093BC0062CF90912E059A
:1023B00080912D05981758F5E0912E0581E08E0F3C
:1023C00080932E05F0E0E35FFA4F8081E9CFE09142
:1023D0002E0581E08E0F80932E058091BB00F0E0EA
:1023E000E35FFA4F808390912E0580912D05981719
:1023F000C8F285E8D8CFE0912E0581E08E0F80935A
:102400002E058091BB00F0E0E35FFA4F808380915E
:10241000300581115CCF81E080930B0584EA8093C5
:10242000BC001092310524CF85EC8093BC00109243
:1024300031058091C304803230F4E091C304F0E0B0
:10244000ED55FB4F10826091C30470E0E0910505EB
:10245000F091060583EA94E019951092C30408CF21
:1024600010922F0534CFFC01908190539A3008F0E0
:1024700090E0818180532AE0929F800D112408957D
:10248000FC0180819181009711F00C94E61B089566
:102490008FE796E00E94401289E796E00E94401282
:1024A00083E796E00E94401281E996E00E94401284
:1024B0008BE896E00E94401285E896E00E94401268
:1024C00083EA96E00E9440128DE996E00E94401255
:1024D00087E996E00C944012EF92FF920F931F93BE
:1024E000CF93DF93EC017B01198218821B821A8241
:1024F0001D821C82FB0101900020E9F731978F01BA
:10250000061B170BB8016F5F7F4F90E080E00E94C1
:102510006F1C0097B9F0998388831B830A832C81F1
:102520003D81232B11F4FC0110821D830C83B70124
:1025300088819981DF91CF911F910F91FF90EF904A
:102540000C94621D88819981009711F00E94E61B0E
:10255000198218821D821C821B821A82DF91CF9100
:102560001F910F91FF90EF90089510925E051092C9
:102570005D0588EE93E0A0E0B0E080935F05909366
:102580006005A0936105B093620522E432E03093C8
:102590005C0520935B0525EC30E0309368052093C3
:1025A000670524EC30E030936A052093690520EC40
:1025B00030E030936C0520936B0521EC30E03093D4
:1025C0006E0520936D0522EC30E03093700520936A
:1025D0006F0526EC30E03093720520937105109260
:1025E0007405109275051092760510927705109279
:1025F000FB051092FA058093FC059093FD05A093CE
:10260000FE05B093FF0584E592E09093F905809371
:10261000F8051092BC061092BB068AE792E09093F0
:10262000BA068093B9061092C20687E28093BD066F
:1026300080E18093C30682E08093C4061092C506B1
:1026400080E792E09093AA068093A90685E38093A1
:10265000B70681E38093B80665E872E087E996E003
:102660000E946C126CE872E08DE996E00E946C1298
:1026700061E972E083EA96E00E946C1269E972E017
:1026800085E896E00E946C126EE972E08BE896E0B5
:102690000E946C1263EA72E081E996E00E946C127B
:1026A00068EA72E083E796E00E946C126EEA72E0DC
:1026B00089E796E00E946C1265EB72E08FE796E086
:1026C0000E946C121092060610920A0610920906D9
:1026D00010920B0686E692E090930506809304061E
:1026E000E0E2F6E08CE596E0108214821382158217
:1026F00036968E179F07C1F78CE092E0909367069D
:102700008093660688E092E090936906809368065D
:1027100084E080936A0680936B0680E192E0909358
:102720006506809364068AE090E090936D0680933E
:102730006C0684EF91E090936F0680936E06109282
:102740007206109271061092600610926106109245
:10275000620610926306109270060895CF93DF937D
:10276000CDB7DEB72C970FB6F894DEBF0FBECDBF46
:10277000789484B5826084BD84B5816084BD85B55C
:10278000826085BD85B5816085BD80916E00816068
:1027900080936E001092810080918100826080930E
:1027A0008100809181008160809381008091800010
:1027B0008160809380008091B10084608093B1003B
:1027C0008091B00081608093B00080919100826020
:1027D000809391008091910081608093910080911D
:1027E00090008160809390008091A100826080932E
:1027F000A1008091A10081608093A1008091A00040
:1028000081608093A00080912101826080932101EA
:10281000809121018160809321018091200181605C
:102820008093200180917A00846080937A00809167
:102830007A00826080937A0080917A008160809330
:102840007A0080917A00806880937A001092C100AB
:10285000109200051092FF04E0916B05F0916C0559
:1028600082E08083E0916705F09168051082E09135
:102870006905F0916A058FEC808310927305E091F1
:102880006F05F091700586E08083E0916D05F09111
:102890006E05808180618083E0916D05F0916E0509
:1028A000808188608083E0916D05F0916E05808164
:1028B00080688083E0916D05F0916E0580818F7D49
:1028C00080830E948B0F782E811111C06CEB72E017
:1028D0008BE595E00E9417108BE595E00E94660657
:1028E0006AE070E080E090E00E947E03F9CF1C86F1
:1028F0008091FA049091FB04FC0124813581232B03
:1029000091F0208131E030933705209359051092E2
:10291000380510925A0521E041E050E0BE01645FA5
:102920007F4F0E944B0C41E050E08E010F5F1F4F24
:10293000B8018091FA049091FB040E942C0D8981CA
:1029400090E0880F892F881F990B892B09F4AFC05D
:102950006EEC72E08BE595E00E9417104BE050E0C2
:1029600061EC72E0C8010E940B1BCE010A960E9426
:102970003312E82EE981E154E33140F50E2E000CCC
:10298000FF0B8827E953FB4E8F4F0C94421B3116E7
:10299000E614E6144C16E6144F16E614E614E61494
:1029A000DA14E614E6143A1649164616E614E61446
:1029B000E61443168A81FF24F394813639F08B8123
:1029C000A6E0FA2E8E3611F0F7E0FF2ECE01059626
:1029D0000E943312D82E48E050E068EB72E0C80144
:1029E0000E940B1BC8010E943312C82ECE01049610
:1029F0000E943312B82ECE0107960E943312382F50
:102A000086E0F80111928A95E9F72AE0832F622F78
:102A10000E94141B982F880F890F880F830F8A83B9
:102A20008B2D0E94141B982F880F890F880F8B0DF8
:102A30008B838C2D0E94141B982F880F890F880F71
:102A40008C0D8C838D2D0E94141B982F880F890F5D
:102A5000880F8D0D8E838F2D0E94141B982F990F38
:102A6000890F880FF80EFF828E2D0E94141B982F5D
:102A7000880F890F880F8E0D88878091FA049091B6
:102A8000FB04FC01248135812830310580F0208150
:102A900031E0309337052093590510923805109294
:102AA0005A0521E048E050E0B8010E944B0CFFB607
:102AB000F8948091C404811127C0E0E5F3E084918B
:102AC000E6E9F3E09491E82FF0E0EE0FFF1FE35307
:102AD000FD4FA591B491EC91E92321F461E085E3E8
:102AE0000E94E70261E085E30E9419038CB58061D2
:102AF0008CBD8CB580648CBD61E084E30E941903B9
:102B000061E083E30E9419038091C4048F5F809386
:102B1000C404FFBE61E08091B7060E94190361E022
:102B20008091B7060E94E7028091B8068F3F09F4B2
:102B3000B9C060E00E9419038091B8060E94BB02F0
:102B4000892B09F0AFC061E08091B8060E9419039B
:102B500060E08091B8060E94E70283E090E0019770
:102B6000F1F761E08091B8060E94E70262E370E04D
:102B700080E090E00E947E0340E064E289EA96E013
:102B80000E941C0740E066E289EA96E00E941C076A
:102B900046E268E489EA96E00E941C0740E864E5A2
:102BA00089EA96E00E941C0749EA66E589EA96E010
:102BB0000E941C0743E068E589EA96E00E941C0732
:102BC00048EE6AE589EA96E00E941C0740E46AE262
:102BD00089EA96E00E941C074DE362E289EA96E0EA
:102BE0000E941C0768E289EA96E00E94FE06982F80
:102BF0009370933039F0482F436068E289EA96E099
:102C00000E941C0764E070E080E090E00E947E0378
:102C10006EE689EA96E00E94FE06F82E8FE692E0C4
:102C20000E944B066F2D70E090E080E040E10E9432
:102C3000D10FF0E98CE592E0FF1609F456C0FF15BC
:102C400008F449C022E188E392E0F21609F44DC08D
:102C500038E884E692E0F31609F447C08BE292E08C
:102C600044C08B81E4E0FE2E823709F4AFCE78E0D9
:102C7000F72EACCE8B8163E0F62E823709F4A6CE18
:102C800055E0F52EA3CE49E0F42EA0CE3AE0F32E87
:102C90009DCE2BE0F22E9ACE9CE0F92E97CE82E0CC
:102CA000F82E94CE4FE062E089EA96E00E941C077D
:102CB000A3E0FA2E62E370E080E090E00E947E03E1
:102CC00062E089EA96E00E94FE0684FF55CFFA94FE
:102CD000F110F0CF51CF71E984E592E0F71629F0B9
:102CE00082E9F812BBCF8CE492E00E94C10F8FEF13
:102CF0008F0D8E3F20F088EE91E00E94C10F84E896
:102D000092E00E94C10F66EF72E08BE595E00E94B1
:102D100017100E948B0F67E073E08BE595E00E942F
:102D2000171069E0262E312C7AE0472E512CEBE06B
:102D3000CE2ED12CFEEAAF2EF6E0BF2E8091FC0401
:102D4000882321F00E94B30E1092FC040E94180404
:102D500080930405882339F0109202051092010532
:102D600081E08093FC04E091FF04F0910005EE30D7
:102D7000F10508F051C08827EF53F94E8F4F0C949E
:102D8000421BCF16F0174B189218E61AA7180C170B
:102D90000C171619881AC3199A19D91ADC190E9426
:102DA000C60E209104058091FE049091FD0421340B
:102DB00009F087C081508093FE04823018F0915052
:102DC0009093FD048091FE048F3F11F41092FE0455
:102DD0008091FE04823030F421E030E0309307022D
:102DE000209306026091FD04623040F4823030F09E
:102DF00022E030E03093070220930602E0900602C2
:102E0000F090070291E0E916F10409F470C0E2E0E5
:102E1000EE16F10409F4B3C061E070E080E090E0E8
:102E20000E947E0380910105909102050196909386
:102E30000205809301051982E090FA04F090FB04EA
:102E4000F70184819581892BC9F0808191E090936D
:102E50003705809359051092380510925A0520E0E5
:102E600041E050E0B801C7010E944B0C882331F0CB
:102E700047E050E0B801C7010E942C0D8A814B81C8
:102E8000282F30E094E0359527959A95E1F7922F19
:102E9000990F990F291B220F280F2093D004842FFC
:102EA00090E024E0959587952A95E1F7982F990F62
:102EB000990F891B880F840F8093CF040E94860688
:102EC0003DCF223409F07ECF8F5F8093FE048330A4
:102ED00008F478CF9F5F9093FD04833009F472CF9C
:102EE00083E08093FE0481E08093FD046BCF682F24
:102EF00080E00E94810E60E173E089EB96E00E9421
:102F00002B1060E081E00E94810E62E173E089EBAA
:102F100096E00E942B1061E081E00E94810E6AE140
:102F200073E089EB96E00E942B108091FE048111E2
:102F300013C080910405833409F06ECF109202050E
:102F40001092010581E08093FC0485E090E090936D
:102F500000058093FF0460CF813009F05DCF909130
:102F60000405933409F058CF109202051092010520
:102F70008093FC04F0920005E092FF044DCF80E0C6
:102F80000E94810E60E173E089EB96E00E942B10B5
:102F900060E081E00E94810E62E273E089EB96E0DE
:102FA0000E942B1061E081E00E94810E60E373E0DB
:102FB00089EB96E00E942B108091FD04823008F08E
:102FC0002BCF80910405833409F026CF109202059F
:102FD0001092010581E08093FC0484E090E0B7CF7B
:102FE0000E94C60E60E082E00E94E7020E94B30EDB
:102FF00060E080E00E94810E60E473E089EB96E07F
:103000000E942B104AEC842E44E0942E5FECE52EB7
:1030100054E0F52EF40111924F016AEC74E08BE557
:1030200095E00E941710E814F904A1F78091C804F4
:103030009091C904853091050CF50E9418048823ED
:10304000E1F3E090C804F090C904970126533B4F88
:103050004901F901808361E08E2D0E94810E41E0DB
:10306000F401608189EB96E00E946A0EFFEFEF1A8F
:10307000FF0AF092C904E092C804D8CF059709F07E
:10308000CBCE81E08093FC041092020510920105E2
:1030900082E090E05CCFE091C804F091C904E6536F
:1030A000FB4F10826AEC74E080E092E00E94591DB0
:1030B000892B71F560E080E00E94810E60E573E08D
:1030C00089EB96E00E94171061E080E00E94810E7B
:1030D00064E673E089EB96E00E94171061E082E0FD
:1030E0000E94E7028091010590910205893C9105BB
:1030F00008F492CE1092020510920105109200057C
:103100001092FF041092FE0481E08093FC0484CEB0
:1031100081E08093FC04109202051092010583E087
:1031200090E015CF60E080E00E94810E68E773E0D8
:1031300089EB96E00E94171061E080E00E94810E0A
:1031400062E474E089EB96E00E941710CBCF0E94F6
:10315000C60E60E080E00E94810E6FE773E089EBAD
:1031600096E00E942B1061E080E00E94810E6BE8E7
:1031700073E089EB96E00E942B101092C70489EA55
:1031800096E00E94AE08882309F446CE89EA96E0CC
:103190000E94B706882309F43FCE63E973E08BE50C
:1031A00095E00E942B1039EAE32E36E0F32EF7016A
:1031B00083816AEB72E0803110F062E673E08BE5A8
:1031C00095E00E941710F701638170E090E080E0C5
:1031D0004AE00E94D10F62E673E08BE595E00E9421
:1031E0002B1089EA96E00E941109FFEFEF1AFF0AFF
:1031F000AE14BF04E1F68091CF0498EF980F9031A0
:1032000048F40E94B30E109202051092010588E066
:1032100090E09DCE8D3008F4FFCD0E94B30E109249
:1032200002051092010586E090E091CE1092C6044E
:103230006091C604643060F570E090E080E04AE0A0
:103240000E94D10F62E872E08BE595E00E94B20F18
:103250008091C604833049F4109202051092010552
:10326000D0920005C092FF04D7CD282F30E0F9019D
:10327000E65CFD4F2755394F4081F901938149178D
:1032800009F43FC06CE973E08BE595E00E941710EC
:10329000EE24E3944091C7045091FC042091FF0474
:1032A00030910005ACEAB6E090E080E06D9174E00A
:1032B000479FF0011124E25DFD4FE80FF91F708177
:1032C000761323C00196572D40E02AE030E0843089
:1032D000910561F7E092FC041092C704509200053A
:1032E0004092FF04F090C70482E0F81217C081E01A
:1032F0008093FC041092C704309200052092FF04D2
:103300008BCD8F5F8093C60493CF5093FC04409382
:10331000C704309300052093FF04E4CF89EA96E0C8
:103320000E94110981E08F0D8093C704833008F457
:10333000B1CF72CD60E080E00E94810E63EB73E05C
:1033400089EB96E00E942B1061E080E00E94810EE4
:1033500062EC73E089EB96E00E942B1080910105EE
:10336000909102058634910508F456CD109202051D
:1033700010920105109200051092FF041092FE04B5
:103380001092FD04C1CE60E080E00E94810E63EBEC
:1033900073E089EB96E00E942B1061E080E00E94D0
:1033A000810E8091C704E6E08E9FC00111248D58E4
:1033B000994F0E948C05D2CF60ED73E08BE595E0CC
:1033C0000E9417108091C504813009F480C0E0F19B
:1033D000823009F021CD809101059091020587345A
:1033E0009105C0F460E080E00E94810E69EE73E018
:1033F00089EB96E00E942B1061E080E00E94810E34
:103400008091C70436E0839FC00111248956994FEB
:103410000E948C05E0900105F090020576E4E71625
:10342000F10411F40E94B30E86E4E81AF10897E45F
:10343000E916F104B8F180910105909102058D38EB
:10344000910508F093CFE8CC809101059091020599
:1034500087349105C0F460E080E00E94810E69EE3F
:1034600073E089EB96E00E942B1061E080E00E94FF
:10347000810E8091C704F6E08F9FC00111248D5802
:10348000994F0E948C058091010590910205863428
:10349000910519F421E02093FC04865491098734A6
:1034A000910548F660E080E00E94810E62EF73E0D3
:1034B00089EB96E00E942B1061E080E00E94810E73
:1034C0006EED73E089EB96E00E942B10B4CF8091F3
:1034D00001059091020587349105A8F660E080E02F
:1034E0000E94810E69EE73E089EB96E00E942B103A
:1034F00061E080E00E94810E8091C70426E0829FF7
:10350000C00111248B57994FBCCF8F5F8093C704A4
:103510006091C7046330E0F570E090E080E04AE03D
:103520000E94D10F62E872E08BE595E00E94B20F35
:103530006DEF73E08BE595E00E9417108091C70452
:1035400024E0829FF0011124E25DFD4F20819091E3
:10355000AC062913DACF62E673E08BE595E00E94B2
:10356000171010920205109201056DE074E08BE5D2
:1035700095E00E942B106091C70470E090E080E01D
:103580004AE00E94D10F1092C5048DE090E0DFCC9C
:10359000633009F041CC109202051092010581E0E0
:1035A0008093FC04ECE0F0E0F0930005E093FF046E
:1035B00033CC6BE374E08BE595E00E94171060E07C
:1035C00080E00E94810E6BE474E0C4CE8091FC0424
:1035D000882321F00E94B30E1092FC0460E080E08A
:1035E0000E94810E6BE574E089EB96E00E94171053
:1035F00061E080E00E94810E6DE674E089EB96E068
:103600000E9417108091010590910205843F91401E
:1036100008F0ACCE01CCFB01DC0102C005900D929C
:1036200041505040D8F70895991B79E004C0991F84
:10363000961708F0961B881F7A95C9F7809508950C
:10364000A1E21A2EAA1BBB1BFD010DC0AA1FBB1FA6
:10365000EE1FFF1FA217B307E407F50720F0A21B18
:10366000B30BE40BF50B661F771F881F991F1A9485
:1036700069F760957095809590959B01AC01BD01AF
:10368000CF010895EE0FFF1F881F8BBF0790F691A3
:10369000E02D19940F931F93CF93DF938230910500
:1036A00010F482E090E0E091C806F091C90630E0A5
:1036B00020E0B0E0A0E0309799F42115310509F43D
:1036C0004AC0281B390B24303105D8F58A819B81EB
:1036D0006115710589F1FB0193838283FE0111C09D
:1036E000408151810281138148175907E0F0481742
:1036F000590799F4109761F012960C93129713964C
:103700001C933296CF01DF91CF911F910F910895B5
:103710000093C8061093C906F4CF2115310551F066
:103720004217530738F0A901DB019A01BD01DF01FF
:10373000F801C1CFEF01F9CF9093C9068093C80675
:10374000CDCFFE01E20FF31F8193919322503109F7
:1037500039832883D7CF2091C6063091C706232B03
:1037600041F420912202309123023093C706209326
:10377000C60620912002309121022115310541F425
:103780002DB73EB74091240250912502241B350BE2
:10379000E091C606F091C706E217F307A0F42E1BCE
:1037A0003F0B2817390778F0AC014E5F5F4F2417A5
:1037B000350748F04E0F5F1F5093C7064093C6066B
:1037C000819391939FCFF0E0E0E09CCFCF93DF9384
:1037D0000097E9F0FC01329713821282A091C8068B
:1037E000B091C906ED0130E020E01097A1F42081EE
:1037F0003181820F931F2091C6063091C70628178A
:10380000390709F061C0F093C706E093C606DF915F
:10381000CF910895EA01CE17DF07E8F54A815B8171
:103820009E0141155105B1F7E901FB83EA834991F6
:103830005991C40FD51FEC17FD0761F48081918168
:103840000296840F951FE901998388838281938171
:103850009B838A83F0E0E0E012968D919C91139710
:103860000097B9F52D913C911197CD010296820FE9
:10387000931F2091C6063091C7062817390739F6DD
:10388000309751F51092C9061092C806B093C7063A
:10389000A093C606BCCFD383C28340815181840FDD
:1038A000951FC817D90761F44E5F5F4F88819981D2
:1038B000480F591F518340838A819B819383828360
:1038C0002115310509F0B0CFF093C906E093C80681
:1038D0009ECFFD01DC01C0CF13821282D7CF4F9261
:1038E0005F926F927F928F929F92AF92BF92CF9290
:1038F000DF92EF92FF920F931F93CF93DF938C0190
:10390000009799F4CB01DF91CF911F910F91FF9018
:10391000EF90DF90CF90BF90AF909F908F907F906F
:103920006F905F904F900C944A1BFC01E60FF71FBD
:103930009C0122503109E217F30708F4AEC0D90107
:10394000CD91DC911197C617D70720F1C530D1056D
:1039500078F0CE0104978617970750F0C61BD70B57
:103960002297C193D1936D937C93CF010E94E61B64
:10397000C801DF91CF911F910F91FF90EF90DF90E1
:10398000CF90BF90AF909F908F907F906F905F90FF
:103990004F9008955B01AC1ABD0A4C018C0E9D1E20
:1039A000A091C806B091C906512C412CF12CE12CF4
:1039B000109731F58091C6069091C7068815990534
:1039C00009F05CC04616570608F058C080912002E6
:1039D00090912102009741F48DB79EB74091240247
:1039E00050912502841B950BE817F90708F055C084
:1039F000F093C706E093C606F90171836083B8CFE0
:103A00008D919C91119712966C90129713967C90C1
:103A10001397A815B90559F56C0142E0C40ED11CE5
:103A2000CA14DB0420F1AC014A195B09DA011296D1
:103A3000159780F06282738251834083D9016D9320
:103A40007C93E114F10471F0D7011396FC93EE938B
:103A500012978ECF22968C0F9D1FF9019183808340
:103A6000F301EFCFF093C906E093C80681CF481663
:103A7000590608F42C017D01D3019ACFCB010E9495
:103A80004A1B7C01009749F0AE01B8010E94501D0D
:103A9000C8010E94E61B87016BCF10E000E068CFF1
:103AA000FB01DC0102C001900D9241505040D8F75B
:103AB0000895FB01DC018D91019080190110D9F36B
:103AC000990B0895FB01DC0101900D920020E1F7B4
:103AD000089511E0C8EFD1E000E006C0802FFE019C
:103AE0000E94421B2196011DC93FD10780E00807B3
:063AF000A9F7F894FFCFD6
:103AF600313437303000010026282A2C1E2022249B
:103B06003132334134353642373839432A3023444B
:103B16000000CA0680000000400014005400AFA256
:103B26003839040B68B204801B150426489200003D
:103B36000000FE055F0595056606C605A405B805E1
:103B460000000000E50CB80C290D8E0CB10C9E0C83
:103B56008F0C0000000055031503E402000000006E
:103B66005809AE08B70600000000850F5F05290D4D
:103B7600280D0D0A00486563746F72004A6F7365FD
:103B860000456D616E75656C004178656C004F6D22
:103B960061720046616375004B6172656E00456D2A
:103BA600616E756500546F6269003000436F756C15
:103BB600646E27742066696E642052544300525422
:103BC60043206973204E4F542072756E6E696E677E
:103BD6002C206C65742773207365742074686520C7
:103BE60074696D65210052464944207265616469B5
:103BF6006E67205549440032313A35333A3139003F
:103C06003E005461726A657461005465636C616458
:103C16006F004E7565766F207573756172696F00FA
:103C26004578636C756972207573756172696F008A
:103C3600496E677265736520636F6469676F3A00E2
:103C460041636365736F20202020202020202020E0
:103C5600202020004175746F72697A61646F20209C
:103C6600202020202020200041636365736F0049D7
:103C76006E6772657365206C6120007461726A6597
:103C8600746100546167205549443A0053616C6978
:103C96006F20646520666F722064656C2070726F99
:103CA6006665004269656E2076656E69646F2F6190
:103CB600200050726F66652E204665726E616E003A
:103CC600456E74726F206120667565726120646549
:103CD60020686F726172696F0044697363756C70F6
:103CE600650045737461206675657261004C656593
:103CF600206C6173206D6174697A657300546F641A
:103D06006F73206C6F73206461746F7320736F6EB2
:103D1600206964656E7469636F7320656E20656CD7
:103D260020766563746F72203A2000416363657381
:103D36006F2044656E656761646F004163636573F8
:103D46006F2064656E656761646F0050726F786995
:103D56006D616D656E746520656E2020004C612076
:103D660076657273696F6E20322E30202020000037
:00000001FF
